S00D000074657374362E7372656321
S113000005C3000022C3000020C300001EC300007B
S11300101CC300001AC3000018C3000016C300006C
S113002014C3000012C3000010C300000EC300007C
S11300300CC300000AC3000008C3000006C300008C
S113004004C3000002C3000000C30000FEC200009D
S1130050FCC20000FAC20000F8C20000F6C20000B0
S1130060F4C20000F2C20000F0C20000EEC20000C0
S1130070ECC20000EAC20000E8C20000E6C20000D0
S1130080E4C20000E2C20000E0C2000052096AD5E6
S11300903036A538BF40A39E81F3D7FB7CE3398279
S11300A09B2FFF87348E4344C4DEE9CB547B9432C8
S11300B0A6C2233DEE4C950B42FAC34E082EA16610
S11300C028D924B2765BA2496D8BD12572F8F664E7
S11300D086689816D4A45CCC5D65B6926C70485062
S11300E0FDEDB9DA5E154657A78D9D8490D8AB0017
S11300F08CBCD30AF7E45805B8B34506D02C1E8F40
S1130100CA3F0F02C1AFBD0301138A6B3A9111417B
S11301104F67DCEA97F2CFCEF0B4E67396AC742264
S1130120E7AD3585E2F937E81C75DF6E47F11A71E2
S11301301D29C5896FB7620EAA18BE1BFC563E4B1B
S1130140C6D279209ADBC0FE78CD5AF41FDDA833DD
S11301508807C731B11210592780EC5F60517FA91D
S113016019B54A0D2DE57A9F93C99CEFA0E03B4D4C
S1130170AE2AF5B0C8EBBB3C83539961172B047EC0
S1130180BA77D626E169146355210C7D637C777BAD
S1130190F26B6FC53001672BFED7AB76CA82C97D7F
S11301A0FA5947F0ADD4A2AF9CA472C0B7FD932610
S11301B0363FF7CC34A5E5F171D8311504C723C314
S11301C01896059A071280E2EB27B27509832C1A58
S11301D01B6E5AA0523BD6B329E32F8453D100EDB2
S11301E020FCB15B6ACBBE394A4C58CFD0EFAAFB96
S11301F0434D338545F9027F503C9FA851A3408F5E
S1130200929D38F5BCB6DA2110FFF3D2CD0C13EC75
S11302105F974417C4A77E3D645D197360814FDC0A
S1130220222A908846EEB814DE5E0BDBE0323A0AEE
S11302304906245CC2D3AC629195E479E7C8376D72
S11302408DD54EA96C56F4EA657AAE08BA78252E97
S11302501CA6B4C6E8DD741F4BBD8B8A703EB56620
S11302604803F60E613557B986C11D9EE1F8981111
S113027069D98E949B1E87E9CE5528DF8CA1890D00
S1130280BFE6426841992D0FB054BB16B8D410FB99
S11302908FD0479C195485A648B417FDA808110EA1
S11302A0FCFBA45D65C4A32677DA3A489817F816D0
S11302B05B81F259D928CE2DDBFC9B02070B87CE3C
S11302C09562A055ACBBDCF97E66BE79982F8A4254
S11302D091443771CFFBC0B5A5DBB5E95BC2563994
S11302E0F111F159A4823F92D55E1CAB98AA07D8AC
S11302F0015B8312BE853124C37D0C55745DBE72CF
S1130300FEB1DE80A706DC9B74F19BC1C1699BE44E
S11303108647BEEFC69DC10FCCA10C246F2CE92DDE
S1130320AA84744ADCA9B05CDA88F97652513E9802
S11303306DC631A8C82703B0C77F59BFF30BE0C609
S11303404791A7D55163CA0667292914850AB72797
S113035038211B2EFC6D2C4D130D385354730A6534
S1130360BB0A6A762EC9C281852C7292A1E8BFA20B
S11303704B661AA8708B4BC2A3516CC719E892D173
S1130380240699D685350EF470A06A1016C1A419F6
S1130390086C371E4C774827B5BCB034B30C1C39F5
S11303A04AAAD84E4FCA9C5BF36F2E68EE828F74B4
S11303B06F63A5781478C8840802C78CFAFFBE90CE
S11303C0EB6C50A4F7A3F9BEF27871C60809090BC7
S11303D00D0F0F050707080B0E0E0C06090D0F076E
S11303E00C08090B07070C07060F0D0B09070F0B69
S11303F00806060E0C0D050E0D0D07050F05080B5E
S11304000E0E060E06090C090C050F0808050C094A
S11304100C050E06080D06050F0D0B0B0B0E0F0C2D
S1130420050807090B0D0E0F060709080706080D36
S11304300B09070F070C0F090B070D0C0B0D060713
S11304400E090D0F0E080D06050C07050B0C0E0FFB
S11304500E0F0908090E05060806050C090F050B01
S113046006080D0C050C0D0E0B080506050E0700FD
S113047009020B040D060F08010A030C060B0307FF
S1130480000D050A0E0F080C040901020F050103F3
S1130490070E06090B080C020A00040D08060401E5
S11304A0030B0F00050C020D09070A0E0C0F0A04BA
S11304B00105080706020D0E0003090B00010203E3
S11304C00405060708090A0B0C0D0E0F07040D019D
S11304D00A060F030C000905020E0B08030A0E049A
S11304E0090F0801020700060D0B050C01090B0A90
S11304F000080C040D03070F0E050602040005098D
S1130500070C020A0E0103080B060F0D982F8A42EE
S113051091443771CFFBC0B5A5DBB5E95BC2563951
S1130520F111F159A4823F92D55E1CAB98AA07D869
S1130530015B8312BE853124C37D0C55745DBE728C
S1130540FEB1DE80A706DC9B74F19BC1C1699BE40C
S11305508647BEEFC69DC10FCCA10C246F2CE92D9C
S1130560AA84744ADCA9B05CDA88F97652513E98C0
S11305706DC631A8C82703B0C77F59BFF30BE0C6C7
S11305804791A7D55163CA0667292914850AB72755
S113059038211B2EFC6D2C4D130D385354730A65F2
S11305A0BB0A6A762EC9C281852C7292A1E8BFA2C9
S11305B04B661AA8708B4BC2A3516CC719E892D131
S11305C0240699D685350EF470A06A1016C1A419B4
S11305D0086C371E4C774827B5BCB034B30C1C39B3
S11305E04AAAD84E4FCA9C5BF36F2E68EE828F7472
S11305F06F63A5781478C8840802C78CFAFFBE908C
S1130600EB6C50A4F7A3F9BEF27871C611241FBE97
S1130610CFEFD0E1DEBFCDBF17E0A0E0B1E0E2E66E
S1130620F6E800E00BBF02C007900D92A03CB107B2
S1130630D9F729E0A0ECB7E001C01D92A830B207B9
S1130640E1F70E94AD210C942F43DACCFC010FB6E4
S1130650F8946091040970910509809106099091BC
S113066007090FBE309721F06083718382839383DF
S11306700895982F990F990B9B71880F89270895D6
S1130680F8DFF7DFF6CF0895CF93DF93CDB7DEB76A
S113069060970FB6F894DEBF0FBECDBFDC0134E027
S11306A080E090E02FC0653089F4FD01E80FF11D72
S11306B0E081F0E0E457FE4F749141E050E04C0FCC
S11306C05D1F490F511DFA01708310C0FD01E80F31
S11306D0F11DE081F0E0E457FF4F749141E050E0F8
S11306E04C0F5D1F490F511DFA0170839C5F9F7071
S11306F08C5F8F702150B9F69F5F9F70860F8F704B
S1130700315011F024E0CFCF80E1FE013196019009
S11307100D928A95E1F760960FB6F894DEBF0FBE8E
S1130720CDBFDF91CF910895DB01FC01AC01405FA7
S11307305F4F9D91208192279193E417F507C9F7A4
S11307400895CF93DF9320E1FB01A82FB92F0190E7
S11307500D922A95E1F7C82FD92F40E1DE019C853F
S11307608D852E853F85542F5F70F1F4E92FF0E0DD
S1130770E457FE4F5491E82FF0E0E457FE4F849184
S1130780E42FE295EF70F0E0E65FFE4FE081982FF2
S11307909E27E22FF0E0E457FE4F8491E32FF0E030
S11307A0E457FE4F2491352FEC91E9275096EC93B2
S11307B050971196EC911197E8275196EC93519725
S11307C01296EC911297E2275296EC935297139655
S11307D0EC911397E3275396EC934C5F2496403B9C
S11307E009F0BCCFDF91CF9108952F923F924F92A1
S11307F05F926F927F928F929F92AF92BF92CF92AD
S1130800DF92EF92FF920F931F93CF93DF93CDB7B5
S1130810DEB760970FB6F894DEBF0FBECDBF7C0184
S11308204A0180E1FB01D70101900D928A95E1F71D
S1130830BA01C70179DF80E1880E911C44244394F6
S11308400F2EFFE02F2EF02D312C99E0941508F493
S113085062C0DE0111965D01622C0F2EFAE07F2E3C
S1130860F02D0F2EF5E0CF2EF02DD32C00E0F70164
S1130870ED0DF11DE081F0E0E457FE4F8491F9DEC7
S1130880582EF701EC0DF11DE081F0E0E457FE4F26
S11308901491812FEEDEF701E70DF11DE081F0E008
S11308A0E457FE4F2491F701E60DF11D9081E92FE5
S11308B0F0E0E457FE4F94911525E12FE827E22755
S11308C0E927D501ED935D01802F8370833089F48E
S11308D084E08C0D94E0970D9F70C92E94E0960DE2
S11308E09F70792E94E09D0D9F70692E8F70D82E85
S11308F005C08D2DDC2CC72C762C682E0F5F0031A3
S113090009F0B5CF80E1FE013196D70101900D9237
S11309108A95E1F703C065E0C701B6DEB401C701FB
S113092003DF4394B0E18B0E911C8BE048128DCF12
S113093060960FB6F894DEBF0FBECDBFDF91CF91A6
S11309401F910F91FF90EF90DF90CF90BF90AF90E9
S11309509F908F907F906F905F904F903F902F90DB
S113096008952F923F924F925F926F927F928F924F
S11309709F92AF92BF92CF92DF92EF92FF920F932A
S11309801F93CF93DF93CDB7DEB762970FB6F8947A
S1130990DEBF0FBECDBF5C015A8B498B80E1FB01EA
S11309A0D50101900D928A95E1F769897A8960569B
S11309B07F4FC501B9DE6DE0C50166DE0F2EF9E09B
S11309C03F2EF02D4E0181E1880E911C69897A89B0
S11309D0E0E13E9E600D711D1124C501A5DE3320AA
S11309E009F473C0C12C0F2EF3E04F2EF02D689440
S11309F0552451F866246394712CD12CF501E70D2C
S1130A00F11D1081812F3CDE282E812F32DEF82E3D
S1130A1030DE182FF501E60DF11DE0808E2D30DE5D
S1130A20082FF2248E2D25DE1F2510271827F50107
S1130A30E50DF11DF0808F2D23DE18278F2D19DE93
S1130A4018DE1827F501E40DF11D0081802F18DE52
S1130A50E1E0F0E0EC0FFD1FED0DF11D8127E8262C
S1130A60FE24F026F08285E08D0D8F70D82E8C2D1B
S1130A708370833089F484E0860D94E0950D9F7033
S1130A80692E94E0940D9F70592E94E0970D9F70F9
S1130A90492E8F70782E05C0872D762C652C542C0A
S1130AA0482EC394F0E1CF12A9CFDE011196C501FF
S1130AB0ED91F0E0E457FF4F2491FC012193CF0125
S1130AC08A169B06A9F73A9481CF62960FB6F894DA
S1130AD0DEBF0FBECDBFDF91CF911F910F91FF906D
S1130AE0EF90DF90CF90BF90AF909F908F907F90CA
S1130AF06F905F904F903F902F9008951F93CF93E6
S1130B00DF93DC015FEF540F541750F580E0252F7D
S1130B1030E0FB01E20FF31FE081F0E0ED01C20FD2
S1130B20D31F288130E0EF01C21BD30B9D2F91709E
S1130B30C82FD0E0D195C195D10989278D23982755
S1130B402E1B3F0B832F8270292F30E03195219586
S1130B50310998279323892751505417C0F201C0B3
S1130B6080E0DF91CF911F91089540E2C7CF0895AF
S1130B70662379F0FC016150262F30E02F5F3F4F50
S1130B80280F391F70E09191792BE217F307D9F7F9
S1130B9001C070E0872F90E091958195910981E0E3
S1130BA0890F089560E2E4CF089520E2FC011192D8
S1130BB02A95E9F70895DC0190E2FB0101900D927A
S1130BC09A95E1F70895FC01B096DC01AC01405F11
S1130BD05F4F9C9122912D939083E417F507C9F7F9
S1130BE008959093C4078093C3077093C2076093DA
S1130BF0C1074093C0070895CF93DF932223C9F020
S1130C00FB01C42FD52FA82FB92F215030E02F5F1F
S1130C103F4F620F731F20E03191899190E0830F61
S1130C20911D820F911D8D93292FE617F707A1F7C8
S1130C3001C020E0822FDF91CF910895CF93DF93FD
S1130C402223D1F0FB01C42FD52FA82FB92F215077
S1130C5030E02F5F3F4F620F731F20E08191399185
S1130C6090E0831B9109821B91098D93292F217098
S1130C70E617F70799F701C020E0822FDF91CF91A3
S1130C80089520E2DBCF0895AF92BF92CF92DF9216
S1130C90EF92FF920F931F93CF93DF93CDB7DEB7FD
S1130CA0A4970FB6F894DEBF0FBECDBF7C018B01B5
S1130CB06E0185E0C80ED11CC60177DFA090C30782
S1130CC0B090C407B501C80150DF92E0892790E0D5
S1130CD0919581959109BA82A982DC82CB82E1E067
S1130CE0E90FF0E0EE0FFF1FEC0FFD1F4181528171
S1130CF0B801C701C6DFA4960FB6F894DEBF0FBED5
S1130D00CDBFDF91CF911F910F91FF90EF90DF90B6
S1130D10CF90BF90AF900895AF92BF92CF92DF92E1
S1130D20EF92FF920F931F93CF93DF93CDB7DEB76C
S1130D30A4970FB6F894DEBF0FBECDBF7C016B0144
S1130D408A015E0185E0A80EB11CC5012EDF20E2F8
S1130D50A801B601C70150DF182FC090C307D09077
S1130D60C407B601C70101DF92E0892790E091959D
S1130D7081959109BA82A982DC82CB82E92FE17044
S1130D801E2BE12FF0E0EE0FFF1FEC0FFD1F418142
S1130D905281B701C70175DFA4960FB6F894DEBF80
S1130DA00FBECDBFDF91CF911F910F91FF90EF90B8
S1130DB0DF90CF90BF90AF900895AF92BF92CF9243
S1130DC0DF92EF92FF920F931F93CF93DF93CDB7F0
S1130DD0DEB7A4970FB6F894DEBF0FBECDBF8C016B
S1130DE06B015A017E0185E0E80EF11CC701DDDECE
S1130DF0A501B601C80145DFFA82E9822091C30743
S1130E003091C4073C832B83E82FF0E0EE0FFF1FE3
S1130E10EC0FFD1F4181528120E2B801C801ECDED4
S1130E20A4960FB6F894DEBF0FBECDBFDF91CF916D
S1130E301F910F91FF90EF90DF90CF90BF90AF90F4
S1130E4008955F926F927F928F929F92AF92BF921A
S1130E50CF92DF92EF92FF920F931F93CF93DF9382
S1130E60B82ED92EEB01C42E722E832E902E402F35
S1130E7050E04C0D511D60E070E00E948C3ECC208F
S1130E8009F440C07E010B2D1D2DCA94D12C8FEF87
S1130E90C81AD80ACC0EDD1EAA24AA94A90CB12C17
S1130EA0EFEFAE1ABE0A612CF70161917F01992020
S1130EB021F1A72DB82DE501C00FD11FF801462D52
S1130EC070E08D91869F9001879F300D1124808161
S1130ED090E0820F911D8193892F9927508050E0D3
S1130EE0450D511D232F3327240F351F280F391F7C
S1130EF02083432FEC17FD0721F70F5F1F4FEC14DE
S1130F00FD0491F6DF91CF911F910F91FF90EF9027
S1130F10DF90CF90BF90AF909F908F907F906F9015
S1130F205F9008957F928F929F92AF92BF92CF92DB
S1130F30DF92EF92FF920F931F93CF93DF93CDB77E
S1130F40DEB7C058D1090FB6F894DEBF0FBECDBFCF
S1130F504C019A0100E240E2CE018F5B9F4F71DFAA
S1130F6010E46894772476F8CE0101966C010F2E74
S1130F70F1E4AF2EB12CF02DAC0EBD1E90E2A90E03
S1130F80B11C6894EE24E5F8F601872D11928A9538
S1130F90E9F7F090C00700EE010F6091C10770916E
S1130FA0C20795014F2DC6014CDFF5018E2D11921C
S1130FB08A95E9F7212FA601BE016F5B7F4FCB0114
S1130FC01BDE80EE8F0D180F1132F0F6BE016F5B41
S1130FD07F4FCB0159DEBE016F5B7F4FC401EBDD58
S1130FE0C058DF4F0FB6F894DEBF0FBECDBFDF9100
S1130FF0CF911F910F91FF90EF90DF90CF90BF9012
S1131000AF909F908F907F9008953F924F925F9200
S11310106F927F928F929F92AF92BF92CF92DF9204
S1131020EF92FF920F931F93CF93DF93CDB7DEB769
S1131030A4970FB6F894DEBF0FBECDBF5C018E013E
S11310400F5F1F4FC801B7DDC501AFDD81E0F501BA
S11310508083BAA2A9A21CA30BA38090C30790907B
S1131060C407F401F78C0F2EFFE13F2EF02D662408
S11310706394712C6801402E5D2C2EC0F401E30DA5
S1131080F11DF080311028C0FA94FA9425C00F2D78
S1131090001F0027001F10E0FF0CF301E01BF10B01
S11310A0EE0FFF1FEC0DFD1D442D552DB50180A144
S11310B091A138DF000F111FF601E00FF11F80A18D
S11310C091A1AC01BC012EDFEA94E110E0CF3A9487
S11310D09FEF3912D3CF04C06894EE24E3F8D7CF3E
S11310E0A4960FB6F894DEBF0FBECDBFDF91CF91AB
S11310F01F910F91FF90EF90DF90CF90BF90AF9032
S11311009F908F907F906F905F904F903F90089545
S1131110CF92DF92EF92FF920F931F93CF93DF93BF
S1131120CDB7DEB7C054D1090FB6F894DEBF0FBEF9
S1131130CDBF7C018C01005E1F4FC80133DDF70178
S1131140E05AFF4F9081892B8083670180E4C80EA9
S1131150D11CA801B601C601E5DEA601B601C6018F
S1131160DBDDA801B801C801DDDEA701B801CE01AD
S11311700196D8DEAE014F5F5F4FBA01CA01CCDDE4
S1131180AE014F5F5F4FBA01CA01C6DDA701B701C7
S1131190C701C8DEB701CE0181960DDDAE014F5DFA
S11311A05F4FBA01CA01B8DDA701BE016F5D7F4F71
S11311B0CB01B2DDAE014F5D5F4FBA01C701B2DEB4
S11311C0AE014F5F5F4FB701C701F7DDAE014F5F5F
S11311D05F4FB701C701F1DDA701BE016F5F7F4F0C
S11311E0CB01EBDDAE014F5D5F4FBE016F5F7F4F03
S11311F0CB0198DEA801B801C80194DEA801B801AA
S1131200C8018ADDA801B801C80186DDA801B801BA
S1131210C80182DDA801BE016F5F7F4FC801CDDD2B
S1131220C05CDF4F0FB6F894DEBF0FBECDBFDF91B9
S1131230CF911F910F91FF90EF90DF90CF90089581
S11312404F925F926F927F928F929F92AF92BF92D2
S1131250CF92DF92EF92FF920F931F93CF93DF937E
S1131260CDB7DEB7C458D1090FB6F894DEBF0FBEB0
S1131270CDBF6A01CF57DF4F99838883C158D040CF
S1131280CD57DF4F79836883C358D040FC01E05ABF
S1131290FF4F6080712C719461947108072D017067
S11312A010E0E1E0F0E0E01BF10BEE0FFF1F81E83E
S11312B090E08C0F9D1FE80FF91FE080F1804A0138
S11312C090E4890E911CF4018081F701E05AFF4FEC
S11312D08083BA01C7016FDC5601F0E2AF0EB11C86
S11312E0B501C701809667DC80E4E80EF11CC701F4
S11312F05CDC81E0F7018083000F111FE1E8F0E07E
S1131300EC0FFD1FE00FF11F80819181CF57DF4F5C
S113131099838883C158D040F401E080F12CF19482
S1131320E194F108F0FA442440F8512C440C551C83
S1131330E1E8F0E0EC0FFD1FE40DF51D00811181E3
S11313404801F0E48F0E911CA401B401CE01019672
S1131350E9DDA401BE016F5F7F4FCE018196E2DD1E
S1131360A501BE016F5D7F4FCB01DCDDA601BE018F
S11313706F5F7F4FCB01D6DDBE016F5F7F4FC8012A
S1131380F4DBC82ED12CD194C194D108580180E249
S1131390A80EB11CBE016F5D7F4FC501E6DB90E076
S11313A09195819591092F2D27292170392F3D2958
S11313B0232B19F4C801ACDE68C0F801E05AFF4FD2
S11313C091708D2D809589239081892B8083A8012C
S11313D0BE016F5F7F4FCB01F0DCA501BE016F5DE5
S11313E07F4FCB01EADCAE014F5F5F4FB401C40114
S11313F099DDAE014F5F5F4FBA01CE018F599F4F08
S113140091DDA801BE016F597F4FCE018F5B9F4FC5
S113141089DDAE014F5D5F4FBA01C80183DDAE01C6
S11314204F595F4FBE016F5F7F4FCB017BDDAE0134
S11314304F5F5F4FB801C801C0DCAE014F5B5F4F27
S1131440B801C801BADCAE014F5B5F4FB801C801F7
S1131450B4DCA801BE016F5B7F4FCB01AEDCAE01F3
S11314604F5D5F4FBE016F5B7F4FCB015BDDA5011D
S1131470BE016F5F7F4FCB0155DDAE014F5F5F4F04
S1131480BE016F5B7F4FC50198DCCC57DF4F0FB6B1
S1131490F894DEBF0FBECDBFDF91CF911F910F91A6
S11314A0FF90EF90DF90CF90BF90AF909F908F9080
S11314B07F906F905F904F900895CF92DF92EF925C
S11314C0FF920F931F93CF93DF93CDB7DEB7C05432
S11314D0D1090FB6F894DEBF0FBECDBF7C018B01DE
S11314E0FB01E05AFF4F8081F701E05CFF4F8083EE
S11314F06B0180E4C80ED11CA601B601CE01019691
S113150011DDA601BE016F5F7F4FCE0181960ADD1A
S1131510BE016F5F7F4FCB0178DDBE016F5D7F4FF2
S1131520CB0173DDAE014F5F5F4FB801C701FADC39
S1131530B801605E7F4FAE014F5D5F4FC70180967B
S1131540F1DCC05CDF4F0FB6F894DEBF0FBECDBF39
S1131550DF91CF911F910F91FF90EF90DF90CF908B
S1131560089541E165E171E086E291E03ACB0895A6
S1131570BF92CF92DF92EF92FF920F931F93CF937C
S1131580DF93CDB7DEB7C750D1400FB6F894DEBFB6
S11315900FBECDBF7C018B0181E6FE013196DF01D8
S11315A0982F1D929A95E9F7EF59FF4FDF011D928D
S11315B08A95E9F76E01B3ECCB0ED11C81E4F601F8
S11315C011928A95E9F745E066E471E08BE491E0D5
S11315D008DB81E0A2968FAFA297CD5FDE4F8883B0
S11315E0C350D140CA5FDE4FF982E882C650D14071
S11315F0CC5FDE4FD982C882C450D1400F2EFFE1A8
S1131600BF2EF02DF801EB0DF11DC0806894DD2490
S1131610D3F8CE0101967CDDEC2DEE1FEE27EE1FF4
S1131620F0E0EE0FFF1F84E091E08C0F9D1FE80FA8
S1131630F91F40815181BE016E597F4F8350914003
S1131640FFDDCC0CDA94D110E4CFBA949FEFB91239
S1131650D9CFBE016F5F7F4FC7012FDFC95FDE4F58
S11316600FB6F894DEBF0FBECDBFDF91CF911F91AF
S11316700F91FF90EF90DF90CF90BF900895CF929D
S1131680DF92EF92FF920F931F93CF93DF93CDB727
S1131690DEB7A0970FB6F894DEBF0FBECDBF6C01C6
S11316A0FC01E05CFF4F1082ECEAF2E08E010F5F78
S11316B01F4F7E0181E2E80EF11CD80184918D93C5
S11316C03196AE15BF05D1F7BE016F5F7F4FC601DE
S11316D072DAECE8F2E08491D8018D938D013196B1
S11316E0AE15BF05C1F7BE016F5F7F4FC60180967F
S11316F062DAA0960FB6F894DEBF0FBECDBFDF91BD
S1131700CF911F910F91FF90EF90DF90CF900895AC
S11317100F931F93CF93DF93CDB7DEB7C154D10995
S11317200FB6F894DEBF0FBECDBF8C0191E4FB0170
S1131730DE01119601900D929A95E1F722968FADF4
S11317402297882321F0F801108281E036C04111EC
S11317501DC084E0F8018083CE01019634DACE0105
S1131760819631DA80E2FE013196D801119601901A
S11317700D928A95E1F780E2FE01B196D801919627
S113178001900D928A95E1F781E417C089A180FF49
S113179004C083E0F801808303C082E0F801808301
S11317A0CE01019610DA80E2FE013196D80111963D
S11317B001900D928A95E1F781E2CF5BDF4F0FB67E
S11317C0F894DEBF0FBECDBFDF91CF911F910F9173
S11317D00895FC0170836183528343830895FC015F
S11317E040835183628373830895FC0180819381D4
S11317F09083838381819281918382830895DC0124
S113180090961C92909791961C92FC01B39620E4BA
S1131810DF011D922A95E9F70895CF93DF93FC0128
S1131820EC01CD59DF4F88819981AA81BB81019652
S1131830A11DB11D88839983AA83BB8382A18823B8
S113184011F081A103C091A183E0891B8130A9F02B
S113185018F0823019F133C080A1EF0194E0899F20
S1131860C00DD11D11248BA19CA1ADA1BEA1B62B8D
S11318708BA39CA3ADA3BEA332C080A1EF0194E0CF
S1131880899FC00DD11D11248BA19CA1ADA1BEA126
S1131890A62B8BA39CA3ADA3BEA321C080A1EF0163
S11318A094E0899FC00DD11D11248BA19CA1ADA1F1
S11318B0BEA1962B8BA39CA3ADA3BEA310C080A1F5
S11318C0EF0194E0899FC00DD11D11248BA19CA12F
S11318D0ADA1BEA1862B8BA39CA3ADA3BEA381A166
S11318E0833019F490A19F5F90A38F5F837081A3CD
S11318F080A1803151F4EF01E959FF4F0190F0814B
S1131900E02DCE010995CE017ADFDF91CF910895C4
S1131910CF92DF92EF92FF920F931F93CF93DF93B7
S1131920CDB7DEB728970FB6F894DEBF0FBECDBF94
S11319308C01FC01ED59FF4F40815181628173811B
S1131940440F551F661F771F440F551F661F771FCF
S11319506A017B01CC0CDD1CEE1CFF1C60E85DDF22
S113196003C060E0C80159DFD80190968C9190972C
S11319708E30B9F791968C918111F3CFFE01319697
S113198088E0DF011D928A95E9F7F80182A1882396
S113199031F0B701A601CE0105961BDF1EC0B701C9
S11319A0A601CE0101961BDF18C0D7016D917D0100
S11319B0C80133DFCE14DF04C1F7F80182A181111D
S11319C014C07801005E1F4FC7010FDFF4E0EF0E73
S11319D0F11C0E151F05C1F708C0CE0101967C014C
S11319E06E0199E0C90ED11CE0CF28960FB6F89489
S11319F0DEBF0FBECDBFDF91CF911F910F91FF903E
S1131A00EF90DF90CF900895EF92FF920F931F9382
S1131A10CF93DF934423A1F08B01C82FD92F7B01EF
S1131A2080E2E80EF11CF8014191519161917191AC
S1131A308F01CE01CEDE24960E151F05A1F712C02C
S1131A408B01005E1F4FC82FD92F7B01F8017291C3
S1131A506291529142918F01CE01C1DE24960E15FE
S1131A601F05A1F7DF91CF911F910F91FF90EF9088
S1131A7008952F923F924F925F926F927F928F922E
S1131A809F92AF92BF92CF92DF92EF92FF920F9309
S1131A901F93CF93DF93CDB7DEB7C351D3400FB6B7
S1131AA0F894DEBF0FBECDBFCE52DD4F998388833D
S1131AB0C25DD240DC01AE5BBF4FFE013196C4551E
S1131AC0DD4FF983E883CC5AD2408E010F571F4F64
S1131AD07C9111966C91119712965C9112971396C2
S1131AE04C91139714963C91149715962C91159735
S1131AF016969C91169717968C9117971896708343
S1131B006183528343833483258396838783389602
S1131B10E017F107E9F6DE01A75BBF4FFE01E75BC3
S1131B20FD4FCF57DD4FF983E883C158D240C455E8
S1131B30DD4F28803980CC5AD2407D019896FC91A3
S1131B409897CD57DD4FF883C358D2409996EC91BE
S1131B509997CC57DD4FE883C458D2409A964C905D
S1131B609A979B965C909B979C966C909C979D965D
S1131B707C909D979E968C909E979F969C909F9705
S1131B801896F101F085CB57DD4FF883C558D24044
S1131B90F101F185CA57DD4FF883C658D240F101EF
S1131BA0F285C557DD4FF883CB58D240F101F38558
S1131BB0C457DD4FF883CC58D240F101F485C357A4
S1131BC0DD4FF883CD58D240F101F585C257DD4F82
S1131BD0F883CE58D240F101F685C157DD4FF88322
S1131BE0CF58D240F101F785C057DD4FF883C05973
S1131BF0D240F70120813181428153816481758112
S1131C0086819781F101A08018E0210E311CB180FA
S1131C10C280D380E480F580068117810E94053E4E
S1131C20C556DD4F2883CB59D240F32FC456DD4F20
S1131C304883CC59D240C356DD4F5883CD59D24046
S1131C40CE55DD4F6883C25AD240CD55DD4F7883DF
S1131C50C35AD240CC55DD4F8883C45AD240CB55A9
S1131C60DD4F9883C55AD240CD57DD4F2881C358E4
S1131C70D240CC57DD4F3881C458D240442D552D25
S1131C80662D772D882D992D03E00E94EA3DA22E22
S1131C90B32EC42ED52EE62EF72EE82F192FCD57AE
S1131CA0DD4F2881C358D240CC57DD4F3881C4580A
S1131CB0D240442D552D662D772D882D992D0DE27A
S1131CC00E94EA3DA226B326C426D526E626F72698
S1131CD0E8271927CD57DD4F2881C358D240CC5768
S1131CE0DD4F3881C458D240442D552D662D772DB3
S1131CF0882D992D06E00E94CE3DA226B326C42647
S1131D00D526E626F7260E2F08271927C556DD4FB8
S1131D102881CB59D2403F2FC456DD4F4881CC593E
S1131D20D240C356DD4F5881CD59D240CE55DD4FF8
S1131D306881C25AD240CD55DD4F7881C35AD24012
S1131D40CC55DD4F8881C45AD240CB55DD4F9881A4
S1131D50C55AD2400E94053ECD57DD4F2883C35853
S1131D60D240432E542E652E762E872E982EF92F90
S1131D70CB57DD4F2881C558D240CA57DD4F388133
S1131D80C658D240C557DD4F4881CB58D240C457BE
S1131D90DD4F5881CC58D240C357DD4F6881CD58B0
S1131DA0D240C257DD4F7881CE58D240C157DD4F63
S1131DB08881CF58D240C057DD4F9881C059D24056
S1131DC008E30E94EA3DA22EB32EC42ED52EE62EA1
S1131DD0F72EE82F192FCB57DD4F2881C558D24055
S1131DE0CA57DD4F3881C658D240C557DD4F4881A8
S1131DF0CB58D240C457DD4F5881CC58D240C3573A
S1131E00DD4F6881CD58D240C257DD4F7881CE581E
S1131E10D240C157DD4F8881CF58D240C057DD4FE3
S1131E209881C059D2400FE30E94EA3DA226B3260E
S1131E30C426D526E626F726E8271927CB57DD4FF3
S1131E402881C558D240CA57DD4F3881C658D24080
S1131E50C557DD4F4881CB58D240C457DD4F588118
S1131E60CC58D240C357DD4F6881CD58D240C257B9
S1131E70DD4F7881CE58D240C157DD4F8881CF588D
S1131E80D240C057DD4F9881C059D24007E00E942C
S1131E90CE3DA226B326C426D526E626F7260E2F47
S1131EA008271927CD57DD4F2881C358D240342D38
S1131EB0452D562D672D782D892D9F2F0E94053E87
S1131EC0D0962C93D097D1963C93D197D2964C939D
S1131ED0D297D3965C93D397D4966C93D497D59694
S1131EE07C93D597D6968C93D697D7969C93D79771
S1131EF0CF57DD4FE881F981C158D240AE17BF07F3
S1131F0009F01BCECE52DD4FA881B981C25DD2400B
S1131F10BC91CC52DD4FB883C45DD240CE52DD4F6C
S1131F20A881B981C25DD2401196BC91CB52DD4FDC
S1131F30B883C55DD240CE52DD4FA881B981C25D60
S1131F40D2401296BC91CA52DD4FB883C65DD240CE
S1131F50CE52DD4FA881B981C25DD2401396BC91A7
S1131F60C952DD4FB883C75DD240CE52DD4FA88140
S1131F70B981C25DD2401496BC91C852DD4FB8837A
S1131F80C85DD240CE52DD4FA881B981C25DD24036
S1131F901596BC91C752DD4FB883C95DD240CE526D
S1131FA0DD4FA881B981C25DD2401696BC91C6525C
S1131FB0DD4FB883CA5DD240CE52DD4FA881B981CE
S1131FC0C25DD2401796BC91C552DD4FB883CB5D3C
S1131FD0D240CE52DD4FA881B981C25DD24018965D
S1131FE0BC91C452DD4FB883CC5DD240CE52DD4F9C
S1131FF0A881B981C25DD2401996BC91C352DD4F0C
S1132000B883CD5DD240CE52DD4FA881B981C25D87
S1132010D2401A96BC91C252DD4FB883CE5DD240F5
S1132020CE52DD4FA881B981C25DD2401B96BC91CE
S1132030C152DD4FB883CF5DD240CE52DD4FA8816F
S1132040B981C25DD2401C96BC91C052DD4FB883A9
S1132050C05ED240CE52DD4FA881B981C25DD2406C
S11320601D96BC91CF51DD4FB883C15ED240CE5294
S1132070DD4FA881B981C25DD2401E96BC91CE517C
S1132080DD4FB883C25ED240CE52DD4FA881B98104
S1132090C25DD2401F96BC91CD51DD4FB883C35E63
S11320A0D240CE52DD4FA881B981C25DD240509654
S11320B0BC91CC51DD4FB883C45ED240CE52DD4FCB
S11320C0A881B981C25DD2405196BC91CB51DD4FFC
S11320D0B883C55ED240CE52DD4FA881B981C25DBE
S11320E0D2405296BC91CA51DD4FB883C65ED240ED
S11320F0CE52DD4FA881B981C25DD2405396BC91C6
S1132100C951DD4FB883C75ED240CE52DD4FA8819E
S1132110B981C25DD2405496BC91C851DD4FB88399
S1132120C85ED240CE52DD4FA881B981C25DD24093
S11321305596BC91C751DD4FB883C95ED240CE528B
S1132140DD4FA881B981C25DD2405696BC91C6517B
S1132150DD4FB883CA5ED240CE52DD4FA881B9812B
S1132160C25DD2405796BC91C551DD4FB883CB5E5A
S1132170D240CE52DD4FA881B981C25DD24058967B
S1132180BC91C451DD4FB883CC5ED240CE52DD4FFA
S1132190A881B981C25DD2405996BC91C351DD4F2B
S11321A0B883CD5ED240CE52DD4FA881B981C25DE5
S11321B0D2405A96BC91C251DD4FB883CE5ED24014
S11321C0CE52DD4FA881B981C25DD2405B96BC91ED
S11321D0C151DD4FB883CF5ED240CE52DD4FA881CE
S11321E0B981C25DD2405C96BC91C051DD4FB883C9
S11321F0C05FD240CE52DD4FA881B981C25DD240CA
S11322005D96BC91CF50DD4FB883C15FD240CE52B2
S1132210DD4FA881B981C25DD2405E96BC91CE509B
S1132220DD4FB883C25FD240CE52DD4FA881B98161
S1132230C25DD2405F96BC91CD50DD4FB883C35F81
S1132240D240CE52DD4FA881B981C25DD240909672
S1132250BC91CC50DD4FB883C45FD240CE52DD4F29
S1132260A881B981C25DD2409196BC91CB50DD4F1B
S1132270B883C55FD240CE52DD4FA881B981C25D1B
S1132280D2409296BC91CA50DD4FB883C65FD2400B
S1132290CE52DD4FA881B981C25DD2409396BC91E4
S11322A0C950DD4FB883C75FD240CE52DD4FA881FD
S11322B0B981C25DD2409496BC91C850DD4FB883B9
S11322C0C85FD240CE52DD4FA881B981C25DD240F1
S11322D09596BC91C750DD4FB883C95FD240CE52AA
S11322E0DD4FA881B981C25DD2409696BC91C6509B
S11322F0DD4FB883CA5FD240CE52DD4FA881B98189
S1132300C25DD2409796BC91C550DD4FB883CB5F78
S1132310D240CE52DD4FA881B981C25DD240989699
S1132320BC91C450DD4FB883CC5FD240CE52DD4F58
S1132330A881B981C25DD2409996BC91C350DD4F4A
S1132340B883CD5FD240CE52DD4FA881B981C25D42
S1132350D2409A96BC91C250DD4FB883CE5FD24032
S1132360CE52DD4FA881B981C25DD2409B96BC910B
S1132370C150DD4FB883CF5FD240CE52DD4FA8812C
S1132380B981C25DD2409C96BC91C050DD4FB883E8
S1132390C050D340CE52DD4FA881B981C25DD24036
S11323A09D96BC91CF5FDC4FB883C150D340CE52D1
S11323B0DD4FA881B981C25DD2409E96BC91CE5FAB
S11323C0DC4FB883C250D340CE52DD4FA881B981CF
S11323D0C25DD2409F96BC91CD5FDC4FB883C350A1
S11323E0D340CE52DD4FA881B981C25DD240D09690
S11323F0BC91CC5FDC4FB883C450D340CE52DD4F88
S1132400A881B981C25DD240D196BC91CB5FDC4F2B
S1132410B883C550D340CE52DD4FA881B981C25D87
S1132420D240D296BC91CA5FDC4FB883C650D34029
S1132430CE52DD4FA881B981C25DD240D396BC9102
S1132440C95FDC4FB883C750D340CE52DD4FA8815B
S1132450B981C25DD240D496BC91C85FDC4FB883C9
S1132460C850D340CE52DD4FA881B981C25DD2405D
S1132470D596BC91C75FDC4FB883C950D340CE52C8
S1132480DD4FA881B981C25DD240D696BC91C65FAA
S1132490DC4FB883CA50D340CE52DD4FA881B981F6
S11324A0C25DD240D796BC91C55FDC4FB883CB5098
S11324B0D340CE52DD4FA881B981C25DD240D896B7
S11324C0BC91C45FDC4FB883CC50D340CE52DD4FB7
S11324D0A881B981C25DD240D996BC91C35FDC4F5B
S11324E0B883CD50D340CE52DD4FA881B981C25DAF
S11324F0D240DA96BC91C25FDC4FB883CE50D34051
S1132500CE52DD4FA881B981C25DD240DB96BC9129
S1132510C15FDC4FB883CF50D340CE52DD4FA8818A
S1132520B981C25DD240DC96BC91C05FDC4FB883F8
S1132530C051D340CE52DD4FA881B981C25DD24093
S1132540DD96BC91CF5EDC4FB883C151D340CE52EF
S1132550DD4FA881B981C25DD240DE96BC91CE5ECA
S1132560DC4FB883C251D340CE52DD4FA881B9812C
S1132570C25DD240DF96BC91CD5EDC4FB883C351BF
S1132580D340ACECB2E0C356DD4FB983A883CD5938
S1132590D240C45FDC4FB881CC50D340CA55DD4F24
S11325A0B883C65AD240C35FDC4FA881CD50D34014
S11325B0C955DD4FA883C75AD240C25FDC4FB881EA
S11325C0CE50D340C855DD4FB883C85AD240C15FFE
S11325D0DC4FA881CF50D340C755DD4FA883C95ADB
S11325E0D240C05FDC4FB881C051D340C655DD4FE7
S11325F0B883CA5AD240CF5EDC4FA881C151D340C0
S1132600C555DD4FA883CB5AD240CE5EDC4FB8818E
S1132610C251D340CF56DD4FB883C159D240CD5EAD
S1132620DC4FA881C351D340CE56DD4FA883C25995
S1132630D240CC5FDC4FB881C450D340C654DD4F88
S1132640B883CA5BD240CB5FDC4FA881C550D3406E
S1132650C554DD4FA883CB5BD240CA5FDC4FB88141
S1132660C650D340C454DD4FB883CC5BD240C95F5D
S1132670DC4FA881C750D340C354DD4FA883CD5B42
S1132680D240C85FDC4FB881C850D340C254DD4F3C
S1132690B883CE5BD240C75FDC4FA881C950D3401A
S11326A0C154DD4FA883CF5BD240C65FDC4FB881F5
S11326B0CA50D340C054DD4FB883C05CD240C55F1C
S11326C0DC4FA881CB50D340CF53DD4FA883C15CEE
S11326D0D240C450DD4FB881CC5FD240CE53DD4FE1
S11326E0B883C25CD240C350DD4FA881CD5FD240D5
S11326F0CD53DD4FA883C35CD240C250DD4FB881B7
S1132700CE5FD240CC53DD4FB883C45CD240C150BD
S1132710DD4FA881CF5FD240CB53DD4FA883C55C8A
S1132720D240C050DD4FB881C050D340CA53DD4FB2
S1132730B883C65CD240CF5FDC4FA881C150D34080
S1132740C953DD4FA883C75CD240CE5FDC4FB8814C
S1132750C250D340C853DD4FB883C85CD240CD5F6C
S1132760DC4FA881C350D340C753DD4FA883C95C55
S1132770D240CC50DD4F6880C45FD240CB50DD4F97
S11327803880C55FD240CA50DD4FB881C65FD240A1
S1132790CD56DD4FB883C359D240C950DD4F788040
S11327A0C75FD240C850DD4FA881C85FD240CD5723
S11327B0DD4FA883C358D240C750DD4FB881C95FED
S11327C0D240CC57DD4FB883C458D240C650DD4FF9
S11327D0A881CA5FD240CB57DD4FA883C558D240E9
S11327E0C550DD4FB881CB5FD240CA57DD4FB883A7
S11327F0C658D240C451DD4FA881CC5ED240C653E6
S1132800DD4FA883CA5CD240C351DD4FB881CD5E91
S1132810D240C553DD4FB883CB5CD240C251DD4FAB
S1132820A881CE5ED240C453DD4FA883CC5CD24095
S1132830C151DD4FB881CF5ED240C353DD4FB88361
S1132840CD5CD240C051DD4FA881C05FD240C2539D
S1132850DD4FA883CE5CD240CF50DD4FB881C15F3D
S1132860D240C153DD4FB883CF5CD240CE50DD4F50
S1132870A881C25FD240C053DD4FA883C05DD2405F
S1132880CD50DD4FB881C35FD240CF52DD4FB88306
S1132890C15DD240CC51DD4FA881C45ED240CE553B
S11328A0DD4FA883C25AD240CB51DD4FB881C55EFB
S11328B0D240CD55DD4FB883C35AD240CA51DD4F03
S11328C0A881C65ED240CC55DD4FA883C45AD240FD
S11328D0C951DD4FB881C75ED240C851DD4FA881D0
S11328E0C85ED240C751DD4F2880C95ED240C65170
S11328F0DD4F8880CA5ED240C551DD4F9880CB5EE3
S1132900D240C452DD4FE881CC5DD240CE54DD4F7D
S1132910E883C25BD240C352DD4FF881CD5DD24023
S1132920CD54DD4FF883C35BD240C252DD4FA88043
S1132930CE5DD240CC54DD4FA882C45BD240C1529C
S1132940DD4FB880CF5DD240CB54DD4FB882C55B3C
S1132950D240C052DD4FC880C05ED240CA54DD4F61
S1132960C882C65BD240CF51DD4FD880C15ED24011
S1132970C954DD4FD882C75BD240CE51DD4F188198
S1132980C25ED240C854DD4F1883C85BD240CD51DB
S1132990DD4F8881C35ED240C754DD4F8883C95B55
S11329A0D240CC52DD4F9881C45DD240C557DD4F33
S11329B09883CB58D240CB52DD4FE881C55DD240DD
S11329C0C457DD4FE883CC58D240CA52DD4FF8815A
S11329D0C65DD240C357DD4FF883CD58D240C952AB
S11329E0DD4FA880C75DD240C257DD4FA882CE58C4
S11329F0D240C852DD4FB880C85DD240C157DD4FC8
S1132A00B882CF58D240C752DD4FC880C95DD2408A
S1132A10C057DD4FC882C059D240C652DD4FD8805E
S1132A20CA5DD240C556DD4FD882CB59D240C5527B
S1132A30DD4F1881CB5DD240C456DD4F1883CC598D
S1132A40D240C455DD4F48805980CC5AD240CB5532
S1132A50DD4FB883C55AD240C455DD4FA883CC5A44
S1132A60D240C255DD4F2882CE5AD240C155DD4FE7
S1132A708882CF5AD240C055DD4F9882C05BD24085
S1132A80262C932CCD56DD4F8880C359D24090C15B
S1132A90CE53DD4FA881C25CD240C654DD4FA8831B
S1132AA0CA5BD240CD53DD4FB881C35CD240C5541C
S1132AB0DD4FB883CB5BD240CC53DD4FA881C45CDF
S1132AC0D240C454DD4FA883CC5BD240CB53DD4FFE
S1132AD0B881C55CD240C354DD4FB883CD5BD240CE
S1132AE0CA53DD4FA881C65CD240C254DD4FA883CF
S1132AF0CE5BD240C953DD4FB881C75CD240C154CC
S1132B00DD4FB883CF5BD240C853DD4FA881C85C8A
S1132B10D240C054DD4FA883C05CD240C753DD4FC0
S1132B20B881C95CD240CF53DD4FB883C15CD24079
S1132B30CE53DD4F2882C25CD240CD53DD4F988204
S1132B40C35CD240CC53DD4F8882C45CD240CB53AB
S1132B50DD4F7882C55CD240CD57DD4FA881C35884
S1132B60D240CA53DD4FA883C65CD240CC57DD4F58
S1132B70B881C458D240C953DD4FB883C75CD24032
S1132B80CB57DD4FA881C558D240C853DD4FA88329
S1132B90C85CD240CA57DD4FB881C658D240C7532B
S1132BA0DD4FB883C95CD240C957DD4F2880C75870
S1132BB0D240C857DD4F9880C858D240C757DD4F20
S1132BC08880C958D240C657DD4F7880CA58D24051
S1132BD0CF54DD4FE881C15BD240CD57DD4FE88350
S1132BE0C358D240C156DD4FF881CF59D240CC579B
S1132BF0DD4FF883C458D240C056DD4FA881C05A77
S1132C00D240CB57DD4FA883C558D240CF55DD4FB6
S1132C10B881C15AD240CA57DD4FB883C658D24092
S1132C20CE54DD4FA881C25BD240CE55DD4FA88380
S1132C30C25AD240CD54DD4FB881C35BD240CD558A
S1132C40DD4FB883C35AD240CC54DD4FA881C45B56
S1132C50D240CC55DD4FA883C45AD240CB54DD4F6B
S1132C60B881C55BD240CB55DD4FB883C55AD2403D
S1132C70CA54DD4FA881C65BD240C455DD4FA8833A
S1132C80CC5AD240C954DD4FB881C75BD240C2553B
S1132C90DD4FB883CE5AD240C854DD4FA881C85BFB
S1132CA0D240C155DD4FA883CF5AD240C754DD4F1F
S1132CB0B881C95BD240C055DD4FB883C05BD240F8
S1132CC0C557DD4FA881CB58D240CE54DD4FA883E1
S1132CD0C25BD240C457DD4FB881CC58D240CD54EA
S1132CE0DD4FB883C35BD240C357DD4FA881CD58B5
S1132CF0D240CC54DD4FA883C45BD240C257DD4FD1
S1132D00B881CE58D240CB54DD4FB883C55BD24096
S1132D10C157DD4FA881CF58D240CA54DD4FA88394
S1132D20C65BD240C057DD4FB881C059D240C954A8
S1132D30DD4FB883C75BD240C556DD4FA881CB5960
S1132D40D240C854DD4FA883C85BD240C456DD4F7F
S1132D50B881CC59D240C754DD4FB883C95BD24047
S1132D60C557DD4F2883CB58D240C457DD4F388335
S1132D70CC58D240C357DD4F4883CD58D240C257B8
S1132D80DD4F5883CE58D240C157DD4F6883CF58AA
S1132D90D240C057DD4F7883C059D240C556DD4F6D
S1132DA08883CB59D240C456DD4F9883CC59D24046
S1132DB0C356DD4FE881F981CD59D240A590B59035
S1132DC0C590D490CD56DD4FA882B982CA82DB82E9
S1132DD0C359D240C356DD4FA881B981CD59D240E1
S1132DE01496C356DD4FB983A883CD59D240FD0153
S1132DF0A590B590C590D490C956DD4FA882B982EC
S1132E00CA82DB82C759D240D201BC91C957DD4F77
S1132E10B883C758D240F201F181C857DD4FF88317
S1132E20C858D240D2011296BC91C757DD4FB8831F
S1132E30C958D240F201B381A481F581C156DD4F56
S1132E40F883CF59D240F201F681C657DD4FF8839B
S1132E50CA58D240F201F781CF54DD4FF883C15BE9
S1132E60D24018E0410E511C222D392D482D572DEA
S1132E70CD57DD4F6881C358D240CC57DD4F7881A0
S1132E80C458D240CB57DD4F8881C558D240CA5769
S1132E90DD4F9881C658D2400EE20E94EA3DB22E20
S1132EA0C32ED42EE52EF62E172FE82F692E222DB1
S1132EB0392D482D572DCD57DD4F6881C358D24049
S1132EC0CC57DD4F7881C458D240CB57DD4F888131
S1132ED0C558D240CA57DD4F9881C658D24002E344
S1132EE00E94EA3DB226C326D426E526F6261727F5
S1132EF0E8276926222D392D482D572DCD57DD4F32
S1132F006881C358D240CC57DD4F7881C458D24031
S1132F10CB57DD4F8881C558D240CA57DD4F9881C1
S1132F20C658D24007E10E94EA3D2B253C254D2599
S1132F305E256F257127A22CA094C654DD4FF8811D
S1132F40CA5BD240AF22B92CB094C554DD4FC880BF
S1132F50CB5BD240BC20C82CC094C454DD4FD88075
S1132F60CC5BD240CD20D72CD094C354DD4F1881F4
S1132F70CD5BD240D122CD57DD4FE880C358D2403B
S1132F80E094C254DD4FF881CE5BD240EF22CC579F
S1132F90DD4FF880C458D240F094C154DD4F1881FD
S1132FA0CF5BD240F122CB57DD4F0881C558D240C8
S1132FB00095C054DD4FF881C05CD2400F23CA573E
S1132FC0DD4F1881C658D2401095CF53DD4FF8819C
S1132FD0C15CD2401F23CE53DD4F3880C25CD24047
S1132FE03220A324CD53DD4F3880C35CD240392036
S1132FF0B324CC53DD4F3880C45CD2403820C32482
S1133000CB53DD4F3880C55CD2403720D324CD5715
S1133010DD4F3880C358D240CA53DD4FF881C65CB7
S1133020D2403F22E324CC57DD4F3880C458D240ED
S1133030C953DD4FF881C75CD2403F22F324CB57FC
S1133040DD4F3880C558D240C853DD4FF881C85C85
S1133050D2403F220325CA57DD4F3880C658D2409C
S1133060C753DD4FF881C95CD2403F2213258E2718
S113307096250E94053EC957DD4FA880C758D24007
S1133080C857DD4FB880C858D240C757DD4FC880F5
S1133090C958D240DB2EEA2EC156DD4FF880CF59F5
S11330A0D240C657DD4F0881CA58D240CF54DD4FB5
S11330B01881C15BD2400E94053E622EC957DD4F84
S11330C03883C758D240C857DD4F4883C858D240C8
S11330D0352EC757DD4F6883C958D240C657DD4FD8
S11330E07883CA58D240F82FE92FC956DD4F88811A
S11330F09981AA81BB81C759D2405C016D01282FF7
S11331003B2D4C2D5D2D60E070E080E090E000E20E
S11331100E94B33DC956DD4F4883C759D240C156BA
S1133120DD4F5883CF59D240E62EF72E082F192FA2
S1133130CD56DD4FA880B980CA80DB80C359D24008
S1133140B601A501A22EA42AB32EB52AC956DD4F75
S1133150C880C759D240C62AC156DD4FD880CF593E
S1133160D240D72A262DC957DD4F3881C758D240BF
S1133170C857DD4F4881C858D240532DC757DD4F3B
S11331806881C958D240C657DD4F7881CA58D240A9
S11331908F2F9E2F0E94053ECA55DD4FA880C65A28
S11331A0D240C955DD4FB880C75AD240C855DD4F0B
S11331B0C880C85AD240C755DD4FD880C95AD240BA
S11331C0C655DD4FE880CA5AD240C555DD4FF88058
S11331D0CB5AD240CF56DD4F0881C159D240CE568A
S11331E0DD4F1881C259D2400E94053ECA55DD4FB9
S11331F02883C65AD240C955DD4F3883C75AD240B6
S1133200C855DD4F4883C85AD240C755DD4F58834F
S1133210C95AD240C655DD4F6883CA5AD240C555F3
S1133220DD4F7883CB5AD240382E692EC557DD4FF7
S11332302881CB58D240C457DD4F3881CC58D24076
S1133240C357DD4F4881CD58D240C257DD4F588116
S1133250CE58D240C157DD4F6881CF58D240C057B5
S1133260DD4F7881C059D240C556DD4F8881CB5996
S1133270D240C456DD4F9881CC59D2400EE10E9411
S1133280EA3DD22EE32EF42E152FB62FA72FF82FBA
S1133290E92FC557DD4F2881CB58D240C457DD4FA5
S11332A03881CC58D240C357DD4F4881CD58D240E5
S11332B0C257DD4F5881CE58D240C157DD4F688187
S11332C0CF58D240C057DD4F7881C059D240C5563F
S11332D0DD4F8881CB59D240C456DD4F9881CC59FB
S11332E0D24004E20E94EA3DD226E326F4261527C2
S11332F0B627A727F827E927C557DD4F2881CB58DC
S1133300D240C457DD4F3881CC58D240C357DD4F2B
S11333104881CD58D240C257DD4F5881CE58D24053
S1133320C157DD4F6881CF58D240C057DD4F7881F7
S1133330C059D240C556DD4F8881CB59D240C456BE
S1133340DD4F9881CC59D24009E10E94EA3D2D25F8
S11333503E254F2551276B277A27CE55DD4FA88070
S1133360C25AD240CE54DD4FA881C25BD240AA26B5
S1133370C557DD4FB881CB58D240AB22CD55DD4F78
S1133380B880C35AD240CD54DD4FA881C35BD2402C
S1133390BA26C457DD4FB881CC58D240BB22CC5595
S11333A0DD4FC880C45AD240CC54DD4FA881C45BE1
S11333B0D240CA26C357DD4FB881CD58D240CB2264
S11333C0CB55DD4FD880C55AD240CB54DD4FA881B0
S11333D0C55BD240DA26C257DD4FB881CE58D24001
S11333E0DB22C455DD4FE880CC5AD240CA54DD4FAD
S11333F0A881C65BD240EA26C157DD4FB881CF58B9
S1133400D240EB22C255DD4FF880CE5AD240C95487
S1133410DD4FA881C75BD240FA26C057DD4FB88183
S1133420C059D240FB22C155DD4F0881CF5AD2404A
S1133430C854DD4FA881C85BD2400A27C556DD4F6A
S1133440B881CB59D2400B23C055DD4F1881C05BE6
S1133450D240C754DD4FA881C95BD2401A27C45655
S1133460DD4FB881CC59D2401B23CE55DD4FA88106
S1133470C25AD240CE54DD4FB881C25BD240AB2396
S1133480AA26CD55DD4FA881C35AD240CD54DD4F75
S1133490B881C35BD240AB23BA26CC55DD4FA8819B
S11334A0C45AD240CC54DD4FB881C45BD240AB2364
S11334B0CA26CB55DD4FA881C55AD240CB54DD4F27
S11334C0B881C55BD240AB23DA26C455DD4FA88151
S11334D0CC5AD240CA54DD4FB881C65BD240AB232C
S11334E0EA26C255DD4FA881CE5AD240C954DD4FD9
S11334F0B881C75BD240AB23FA26C155DD4FA88102
S1133500CF5AD240C854DD4FB881C85BD240AB23F8
S11335100A27C055DD4FA881C05BD240C754DD4F98
S1133520B881C95BD240AB231A278F279E270E94FC
S1133530053ECF56DD4F2883C159D240CE56DD4FCC
S11335403883C259D240CD56DD4F4883C359D24047
S1133550C956DD4F5883C759D240B62FA72FF82F2D
S1133560E92FCA55DD4F2881C65AD240C955DD4FCF
S11335703881C75AD240C855DD4F4881C85AD24015
S1133580C755DD4F5881C95AD240C655DD4F6881B1
S1133590CA5AD240C555DD4F7881CB5AD240832DCB
S11335A0962DC653DD4FA880CA5CD240C553DD4F6B
S11335B0B880CB5CD240C453DD4FC880CC5CD240D1
S11335C0C353DD4FD880CD5CD240C253DD4FE88079
S11335D0CE5CD240C153DD4FF880CF5CD240C053A3
S11335E0DD4F0881C05DD240CF52DD4F1881C15DEF
S11335F0D2400E94053EC957DD4F2883C758D240A8
S1133600C857DD4F3883C858D240C757DD4F488369
S1133610C958D240C657DD4F5883CA58D240CF54F8
S1133620DD4F6883C15BD240C156DD4F7883CF59EB
S1133630D240C056DD4F8883C05AD240CF55DD4FAB
S11336409883C15AD240CA55DD4F2881C65AD24008
S1133650C955DD4F3881C75AD240C855DD4F48811E
S1133660C85AD240C755DD4F5881C95AD240C655B1
S1133670DD4F6881CA5AD240C555DD4F7881CB5A97
S1133680D240832D962DCF56DD4FA880C159D2400C
S1133690CE56DD4FB880C259D240CD56DD4FC880DA
S11336A0C359D240C956DD4FD880C759D240EB2EFA
S11336B0FA2E0F2F1E2F0E94053ECE55DD4FA881F6
S11336C0C25AD240C653DD4FA883CA5CD240CD55FE
S11336D0DD4FB881C35AD240C553DD4FB883CB5CAC
S11336E0D240CC55DD4FA881C45AD240C453DD4FDB
S11336F0A883CC5CD240CB55DD4FB881C55AD240AB
S1133700C353DD4FB883CD5CD240C455DD4FA8818F
S1133710CC5AD240C253DD4FA883CE5CD240C255AE
S1133720DD4FB881CE5AD240C153DD4FB883CF5C50
S1133730D240C155DD4FA881CF5AD240C053DD4F8E
S1133740A883C05DD240C055DD4FB881C05BD24074
S1133750CF52DD4FB883C15DD240C654DD4FA8813E
S1133760CA5BD240CA55DD4FA883C65AD240C5545D
S1133770DD4FB881CB5BD240C955DD4FB883C75A02
S1133780D240C454DD4FA881CC5BD240C855DD4F34
S1133790A883C85AD240C354DD4FB881CD5BD24010
S11337A0C755DD4FB883C95AD240C254DD4FA881F2
S11337B0CE5BD240C655DD4FA883CA5AD240C1540D
S11337C0DD4FB881CF5BD240C555DD4FB883CB5AAE
S11337D0D240C054DD4FA881C05CD240CF56DD4FEB
S11337E0A883C159D240CF53DD4FB881C15CD240C8
S11337F0CE56DD4FB883C259D240ECE0F4E0C35654
S1133800DD4FA881B981CD59D240EA17FB0709F0F1
S11338103FC9CB55DD4FB881C55AD240C455DD4FA1
S1133820A881CC5AD240A22EB32EC42ED52EE62E79
S1133830F72E082F192F622CC255DD4F2880CE5A3F
S1133840D240392CC055DD4F9880C05BD240CD5654
S1133850DD4F8882C359D240C155DD4F8880CF5A8D
S1133860D240CC52DD4F2881C45DD240CB52DD4FD3
S11338703881C55DD240CA52DD4F4881C65DD24011
S1133880C952DD4F5881C75DD240C852DD4F6881AF
S1133890C85DD240C752DD4F7881C95DD240C6525F
S11338A0DD4F8881CA5DD240C552DD4F9881CB5D22
S11338B0D2400E94053ECE52DD4FE881F981C25DBF
S11338C0D240208331834283538364837583868308
S11338D09783C452DD4F2881CC5DD240C352DD4F63
S11338E03881CD5DD240C252DD4F4881CE5DD24099
S11338F0C152DD4F5881CF5DD240C052DD4F688147
S1133900C05ED240CF51DD4F7881C15ED240CE51EE
S1133910DD4F8881C25ED240CD51DD4F9881C35EB8
S1133920D240C557DD4FA880CB58D240C457DD4F95
S1133930B880CC58D240C357DD4FC880CD58D24050
S1133940C257DD4FD880CE58D240C157DD4FE880F2
S1133950CF58D240C057DD4FF880C059D240C55629
S1133960DD4F0881CB59D240C456DD4F1881CC5964
S1133970D2400E94053E208731874287538764875F
S1133980758786879787CC51DD4F2881C45ED240E6
S1133990CB51DD4F3881C55ED240CA51DD4F4881DD
S11339A0C65ED240C951DD4F5881C75ED240C8516E
S11339B0DD4F6881C85ED240C751DD4F7881C95E52
S11339C0D240C651DD4F8881CA5ED240C551DD4F19
S11339D09881CB5ED240CE54DD4FA880C25BD240EA
S11339E0CD54DD4FB880C35BD240CC54DD4FC8808A
S11339F0C45BD240CB54DD4FD880C55BD240CA549F
S1133A00DD4FE880C65BD240C954DD4FF880C75B08
S1133A10D240C854DD4F0881C85BD240C754DD4F43
S1133A201881C95BD2400E94053E208B318B428BAA
S1133A30538B648B758B868B978BCE55DD4F28818A
S1133A40C25AD240CD55DD4F3881C35AD240CC55ED
S1133A50DD4F4881C45AD2405B2F6A2F722D882DC6
S1133A60992DC451DD4FA880CC5ED240C351DD4FA7
S1133A70B880CD5ED240C251DD4FC880CE5ED24008
S1133A80C151DD4FD880CF5ED240C051DD4FE880B8
S1133A90C05FD240CF50DD4FF880C15FD240CE50DE
S1133AA0DD4F0881C25FD240CD50DD4F1881C35F26
S1133AB0D2400E94053E208F318F428F538F648FF6
S1133AC0758F868F978FCC50DD4F2881C45FD2408D
S1133AD0CB50DD4F3881C55FD240CA50DD4F48819D
S1133AE0C65FD240C950DD4F5881C75FD240C8502D
S1133AF0DD4F6881C85FD240C750DD4F7881C95F10
S1133B00D240C650DD4F8881CA5FD240C550DD4FD8
S1133B109881CB5FD240C957DD4FA880C758D240A7
S1133B20C857DD4FB880C858D240C757DD4FC8804A
S1133B30C958D240C657DD4FD880CA58D240CF5456
S1133B40DD4FE880C15BD240C156DD4FF880CF59CC
S1133B50D240C056DD4F0881C05AD240CF55DD4F08
S1133B601881C15AD2400E94053E20A331A342A32A
S1133B7053A364A375A386A397A3C450DD4F2881E0
S1133B80CC5FD240C350DD4F3881CD5FD240C250AC
S1133B90DD4F4881CE5FD240C150DD4F5881CF5FA9
S1133BA0D240C050DD4F6881C050D340CF5FDC4F5E
S1133BB07881C150D340CE5FDC4F8881C250D3405E
S1133BC0CD5FDC4F9881C350D340A62CB32CCD5687
S1133BD0DD4FC880C359D240D72CCD57DD4FE88084
S1133BE0C358D240CC57DD4FF880C458D240CB578D
S1133BF0DD4F0881C558D240CA57DD4F1881C658D9
S1133C00D2400E94053E20A731A742A753A764A72C
S1133C1075A786A797A7CC5FDC4F2881C450D340F3
S1133C20CB5FDC4F3881C550D340CA5FDC4F48813D
S1133C30C650D340C95FDC4F5881C750D340C85FDA
S1133C40DC4F6881C850D340C75FDC4F7881C950CE
S1133C50D340C65FDC4F8881CA50D340C55FDC4F78
S1133C609881CB50D340CE53DD4FA880C25CD24064
S1133C70CD53DD4FB880C35CD240CC53DD4FC880F8
S1133C80C45CD240CB53DD4FD880C55CD240CA530C
S1133C90DD4FE880C65CD240C953DD4FF880C75C75
S1133CA0D240C853DD4F0881C85CD240C753DD4FB2
S1133CB01881C95CD2400E94053E20AB31AB42ABB7
S1133CC053AB64AB75AB86AB97ABC45FDC4F288159
S1133CD0CC50D340C35FDC4F3881CD50D340C25F5A
S1133CE0DC4F4881CE50D340C15FDC4F5881CF5068
S1133CF0D340C05FDC4F6881C051D340CF5EDC4FFE
S1133D007881C151D340CE5EDC4F8881C251D3400B
S1133D10CD5EDC4F9881C351D340C654DD4FA8809B
S1133D20CA5BD240C554DD4FB880CB5BD240C4548B
S1133D30DD4FC880CC5BD240C354DD4FD880CD5B0F
S1133D40D240C254DD4FE880CE5BD240C154DD4F37
S1133D50F880CF5BD240C054DD4F0881C05CD240B4
S1133D60CF53DD4F1881C15CD2400E94053E20AF85
S1133D7031AF42AF53AF64AF75AF86AF97AFCD5E8F
S1133D80DC4F0FB6F894DEBF0FBECDBFDF91CF91ED
S1133D901F910F91FF90EF90DF90CF90BF90AF9065
S1133DA09F908F907F906F905F904F903F902F9057
S1133DB00895FC01E05CFF4F108231961082319629
S1133DC020E8DF011D922A95E9F70895FC01DC0142
S1133DD0AE53BF4F1D921D921D921C92139788E003
S1133DE0808389EC81838CEB828323EF238397E6A2
S1133DF0948386EE858339E036833AE637833BE362
S1133E00308737EA31873AEC328734E8338735E84C
S1133E1034873EEA358796879BEB97879BE2908BA6
S1133E2038EF318B34E9328B3EEF338B32E7348B0E
S1133E30258B2EE6268B2CE3278B21EF208F26E380
S1133E40218F2DE1228F2FE5238F2AE3248F25EF65
S1133E50258F2FE4268F25EA278F21ED20A322E842
S1133E6021A382A38DEA83A38FE784A382E585A39C
S1133E708EE086A381E587A38FE180A72CE621A7A6
S1133E802EE322A793A79CE894A798E695A795E02C
S1133E9096A79BE997A79BE690AB9DEB91AB91E42A
S1133EA092AB9BEF93AB9BEA94AB99ED95AB93E804
S1133EB096AB87AB89E780AF81E281AF8EE782AFB3
S1133EC083E183AF89E184AF8DEC85AF80EE86AF6B
S1133ED08BE587AFCF016DCF0895FF920F931F93AA
S1133EE0CF93DF93DC01262FFC01EE53FF4F40817B
S1133EF05181628173814F5F5F4F6F4F7F4F40836A
S1133F00518362837383E158F109C0813197F08052
S1133F10FC0188E0F89EE00DF11D1124EE5BFF4FDB
S1133F2007E010E00C1B1109000F111F000F111FF7
S1133F30000F111F30E040E050E060E070E080E0EE
S1133F4090E00E94B33DD0812D2BD1813D2BD281B5
S1133F504D2BD3815D2BD4816D2BD5817D2BD681C7
S1133F608D2BD7819D2B208331834283538364839C
S1133F70758386839783C73029F4FD01E05CFF4F86
S1133F80F394F082FD01EF5BFF4FCF5FC770C083F6
S1133F9031978081803131F4ED01CD010E94390DDA
S1133FA0CE0107DFDF91CF911F910F91FF9008950C
S1133FB06F927F928F929F92AF92BF92CF92DF9235
S1133FC0EF92FF920F931F93CF93DF93CDB7DEB79A
S1133FD060970FB6F894DEBF0FBECDBF682E792E62
S1133FE08B01FB01EE53FF4F80809180A280B38050
S1133FF0880C991CAA1CBB1C880C991CAA1CBB1CF1
S1134000880C991CAA1CBB1C60E8C80166DF7801F7
S113401080E4E80EF11C680191E4C90ED11C03C0D0
S113402060E0C8015ADFF70180818E30C9F7F601DC
S113403080818111F5CFCE0101967C0180E1F701E9
S113404011928A95E9F7B501A401CE010D960E945B
S1134050E90B6E01F1E1CF0ED11CF70161917F01F3
S1134060C8013BDFEC14FD04C1F7C62CD72C780142
S11340704801F0E48F0E911C5701F7012081318132
S113408042815381648175818681978100E20E9417
S1134090CE3D642F752F422F532FC6010E94E90B8A
S11340A0F8E0EF0EF11CF5014081518162817381CA
S11340B0C60104960E94E90BF8E0CF0ED11CE81467
S11340C0F904D1F660960FB6F894DEBF0FBECDBFEB
S11340D0DF91CF911F910F91FF90EF90DF90CF90E0
S11340E0BF90AF909F908F907F906F9008955F9254
S11340F06F927F928F929F92AF92BF92CF92DF92F4
S1134100EF92FF920F931F93CF93DF93CDB7DEB758
S1134110C658D1400FB6F894DEBF0FBECDBF4C01D8
S11341205B016A013901FE01EF5BFF4F80E8DF01AB
S11341301D928A95E9F74138510520F4CF010E9478
S1134140833E1BC0CE018F539F4F40DEC114D10468
S113415069F07501CA0CDB1CF70161917F01CE0186
S11341608F539F4FBADECE14DF04B1F7BE016F53F5
S11341707F4FCE018F5B9F4F1BDFCE018F539F4F2D
S113418025DE7E01F1E4EF0EF11C5E0181ECA80E48
S1134190B11C67010F2EF6E35F2EF02DD6016D9151
S11341A06D016525CE018F539F4F97DEAC14BD047E
S11341B0A9F70115110569F06301060D171DF60134
S11341C061916F01CE018F539F4F87DE0C151D0542
S11341D0B1F7BE016F537F4FCE010196E9DECE01E8
S11341E08F539F4FF3DD1CE5D7016D917D0161274E
S11341F0CE018F539F4F71DEAE14BF04A9F78E0119
S11342000F5F1F4F7E01B1E4EB0EF11CF8016191C9
S11342108F01CE018F539F4F60DE0E151F05B1F73E
S1134220BE016F537F4FC401C3DECA57DE4F0FB6C2
S1134230F894DEBF0FBECDBFDF91CF911F910F91D8
S1134240FF90EF90DF90CF90BF90AF909F908F90B2
S11342507F906F905F9008955D9BFECF8CB9089519
S1134260EBE9F0E0908195FFFDCF80939C000895E9
S1134270CF93C82FF1DF8C2FF3DF80E090E0CF9154
S113428008951BBA1ABA18BA17BA15BA14BA12BAD8
S113429011BA13B812B81092620010926100109211
S11342A065001092640008951AB81BB886E08093E4
S11342B0950087E689B91092900088E98AB9089533
S11342C0EAE9F0E0108210929B0086E080939D0062
S11342D087E6809399001092980088E1808308957E
S11342E0F89410926D0010926C00CBDFDDDFE8DFF4
S11342F060E070E088E391E20E94933E15BE109264
S11343006A001ABE19BE17BE10927D0078940895F3
S1134310181619065CF420E030E00F920F900F920B
S11343200F902F5F3F4F82179307B9F708950F93AC
S11343301F93CF93DF931816190654F48C01C0E031
S1134340D0E088EE93E0E4DF21960C171D07C9F74F
S1134350DF91CF911F910F910895AF92BF92CF92A9
S1134360DF92EF92FF920F931F93CF93DF93CDB71A
S1134370DEB7CE5BD5400FB6F894DEBF0FBECDBF1F
S1134380AFDF8BE691E09F938F930E94DD3E80EB3D
S113439094E0CDDF86E791E09F938F930E94DD3E0A
S11343A080E699E0C4DF8CE791E09F938F930E94AD
S11343B0DD3E80EB94E0BBDF82E891E09F938F9336
S11343C00E94DD3E80EB94E0B2DF88E891E00E9439
S11343D02C3113D51982A5ECB7E04FEF5FEFBA018A
S11343E04D935D936D937C931397EDECF7E01082FE
S11343F011821282138214964D935D936D937C9374
S1134400179714821582168217820E9450360FB6AF
S1134410F894DEBF0FBECDBF811103C00E941831D6
S113442006C084E991E00E94F53E0E942231FE011B
S1134430E250FF4F80E094E0DF019C011D92215087
S11344403040E1F78981282F30E094E0899FE00D26
S1134450F11D1124408151816281738180E096E0D5
S11344600197F1F7220F331F220F331FEEEFF0E015
S1134470EC0FFD1FE20FF31F5A5F6F4F7F4F408316
S1134480518362837383DE01A250BF4F7D0100E03C
S113449010E020E00F2EF6ECCF2EF1E0DF2EF02D11
S11344A0BB24B394F70181919191A191B1917F01C2
S11344B081369105A105B10568F01F930F93DF9232
S11344C0CF920E94DD3E0E9422310F900F900F90F8
S11344D00F902B2D0F5F1F4F0115F1E01F0711F7F0
S11344E0211102C00E9418318091C5079091C6071E
S11344F0A091C707B091C807892B8A2B8B2B31F564
S11345008091CD079091CE07A091CF07B091D007AD
S11345108F3F9140A105B105C9F48091C9079091DD
S1134520CA07A091CB07B091CC07892B8A2B8B2B80
S113453069F48091D1079091D207A091D307B091EB
S1134540D4078F3F9340A105B10539F08BE092E089
S11345500E94F53E0E94223102C00E94183100E000
S113456010E09801AE0147555F4FBE016F5F7F4F6A
S1134570CE0187549F4F0E94DC37811103C00E94F3
S1134580183106C08DE392E00E94F53E0E9422316C
S1134590C754DF4F88819981AA81BB81C95BD04010
S11345A0892B8A2B8B2B19F40E94183106C082E8C0
S11345B092E00E94F53E0E942231BE0162587A4F79
S11345C0CE0182509B4F0E9492366F3F7F4F8F4F98
S11345D09F4F39F40E94E631873019F40E94183154
S11345E006C085EC92E00E94F53E0E9422310E94B2
S11345F04E32672B682B692B39F40E94E6318730E1
S113460019F40E94183106C081E093E00E94F53E3F
S11346100E94223120E030E0A901BE0162587A4FA5
S1134620CE0182509B4F0E94B132873019F40E9410
S1134630183106C08EE393E00E94F53E0E942231B9
S113464040E050E0BA01CE0182509B4F0E946D328F
S1134650873019F40E94183106C082E893E00E9462
S1134660F53E0E94223160E070E0CE0182509B4F03
S11346700E94F836873019F40E94183106C08DEB79
S113468093E00E94F53E0E942231CE0182509B4F5E
S11346900E941F37873019F40E94183106C08EEF2C
S11346A093E00E94F53E0E94223140E050E0BA01BE
S11346B080E00E948F3A873019F40E94183106C0B6
S11346C08CE394E00E94F53E0E942231BE016250C8
S11346D07B4FCE0182589A4F0E940232873019F4E0
S11346E00E94183106C086E794E00E94F53E0E94BD
S11346F0223120E030E040E050E060E070E0CB01A7
S11347000E945238863019F40E94183106C086EB94
S113471094E00E94F53E0E94223188E2EDEEF4E03E
S1134720DE01AF57BF4F01900D928A95E1F7A12C9E
S1134730B12CC12CD12CE12C00E010E020E0AE0122
S11347404F575F4F60E070E0CB010E942039811128
S113475003C00E94183106C086E195E00E94F53E30
S11347600E94223120E030E040E050E060E070E060
S1134770CB010E945238811103C00E94183106C037
S113478082E395E00E94F53E0E9422310E944E325F
S1134790672B682B692B39F40E94E631823019F4B7
S11347A00E94183106C08DE595E00E94F53E0E94F6
S11347B0223100E010E09801AE0147555F4FBE0181
S11347C06F5F7F4FCE0187549F4F0E94DC3781116A
S11347D003C00E94183106C084E795E00E94F53EAC
S11347E00E942231C754DF4F88819981AA81BB81FD
S11347F0C95BD0400297A105B10519F40E94183194
S113480006C088EA95E00E94F53E0E9422310E948B
S11348105036811103C00E94183106C08FED95E017
S11348200E94F53E0E94223120E030E040E050E05A
S113483060E070E0CB010E945238863019F40E9487
S1134840183106C089E196E00E94F53E0E942231AB
S1134850A12CB12CC12CD12CE12C00E010E020E0E3
S1134860AE014F575F4F60E070E0CB010E942039EA
S1134870811103C00E94183106C084E496E00E94AE
S1134880F53E0E942231BE0163547F4FCE01019652
S11348900E9492366F3F7F4F8F4F9F4F19F00E94B7
S11348A0183106C088E796E00E94F53E0E94223146
S11348B0A12CB12CC12CD12CE12C00E010E020E083
S11348C0AE014F575F4F60E070E0CB010E9420398A
S11348D08D3019F40E94183106C082EA96E00E94D5
S11348E0F53E0E94223180E090E0C254DA4F0FB6C8
S11348F0F894DEBF0FBECDBFDF91CF911F910F9112
S1134900FF90EF90DF90CF90BF90AF900895F89410
S1134910FFCF6F927F928F929F92AF92BF92CF926E
S1134920DF92EF92FF920F931F93CF93DF93CDB754
S1134930DEB7C058D1090FB6F894DEBF0FBECDBFA5
S11349405C014B013A0180E4D501E82F1D92EA9500
S1134950E9F7FE013196DF011D928A95E9F70D33DF
S1134960110510F0D4DF3DC0A801B901CE010196B4
S11349700E94833E41E050E060E070E081E090E01E
S11349808C0F9D1F800F911F0E94E90B0C5F1F4F1E
S1134990C12CD12C7E01B1E4EB0EF11C9E012F5FE2
S11349A03F4FA301B401C701A2DB80E4F701DE019C
S11349B0119601900D928A95E1F7DE011196F501A9
S11349C097018D91908189278193A217B307C9F725
S11349D0EFEFCE1ADE0A00E410E0C114F4E0DF06C3
S11349E0E9F6C058DF4F0FB6F894DEBF0FBECDBF57
S11349F0DF91CF911F910F91FF90EF90DF90CF90B7
S1134A00BF90AF909F908F907F906F900895CF92BA
S1134A10DF92EF92FF920F931F93CF93DF93CDB763
S1134A20DEB7C958D1090FB6F894DEBF0FBECDBFAB
S1134A306C017B01CE01019684D6870180E2E80EE9
S1134A40F11CF80161918F01CE010196B5D60E15C6
S1134A501F05B9F7CE010196B2D641E0BE016F5FE2
S1134A607F4FCE0186599F4F0E94040D80E1FE01C5
S1134A70E659FF4FD60101900D928A95E1F7C75789
S1134A80DF4F0FB6F894DEBF0FBECDBFDF91CF91DD
S1134A901F910F91FF90EF90DF90CF90089581E4E4
S1134AA0E6EDF7E0DF011D928A95E9F71092D5074C
S1134AB00895CF92DF92EF92FF920F931F93CF93BB
S1134AC0DF93CDB7DEB760970FB6F894DEBF0FBEA5
S1134AD0CDBF6C0110E2E12EF12C00E010E020E4E7
S1134AE030E040E050E060E00E94E33381111BC0FD
S1134AF0B601CE0101968BDF10E1E12EF12C00E02E
S1134B0010E020E630E040E050E060E0CE010196A5
S1134B100E94E333811109C00E944E3A91E0811151
S1134B2005C090E003C091E001C091E0892F609638
S1134B300FB6F894DEBF0FBECDBFDF91CF911F91AA
S1134B400F91FF90EF90DF90CF900895CF92DF9276
S1134B50EF92FF920F931F93CF93DF93CDB7DEB7FE
S1134B60A0970FB6F894DEBF0FBECDBF6C0110E264
S1134B70E12EF12C00E010E020E430E040E050E0D1
S1134B8060E00E944637811122C0B601CE014196F1
S1134B903EDF10E1E12EF12C00E010E020E630E0F1
S1134BA040E050E060E0CE0101960E94463781115A
S1134BB010C040E150E0BE016F5E7F4FCE01019610
S1134BC00E94763E21E0892B29F420E003C021E0F5
S1134BD001C021E0822FA0960FB6F894DEBF0FBE6D
S1134BE0CDBFDF91CF911F910F91FF90EF90DF9098
S1134BF0CF900895CF92DF92EF92FF920F931F937D
S1134C00CF93DF93CDB7DEB7C958D1090FB6F89467
S1134C10DEBF0FBECDBFC82ED92ECE0186599F4F01
S1134C2095DF882321F08C2D9D2D43DF2FC0CE01ED
S1134C3001960E9481308E0106591F4FEC2CFD2CE9
S1134C40680180E2C80ED11CF80161918F01CE0188
S1134C5001960E94D530F70161917F01CE01019642
S1134C600E94D5300C151D0579F7CE0101960E94DE
S1134C70D83041E0BE016F5F7F4FCE0186599F4F10
S1134C800E94040DCE0186599F4F13DFC757DF4F93
S1134C900FB6F894DEBF0FBECDBFDF91CF911F9149
S1134CA00F91FF90EF90DF90CF9008958F929F9295
S1134CB0AF92BF92EF92FF920F931F93CF93DF9324
S1134CC0CDB7DEB7C55AD1090FB6F894DEBF0FBE13
S1134CD0CDBF7C018B0149015A010E94B10A80E2D7
S1134CE0F801DE01119601900D928A95E1F7CE014B
S1134CF001960E94E305BE016F5F7F4FCB010E94C6
S1134D004406CE0101960E94D205811163C08091B0
S1134D10D50781110EC086ED97E00E943F0BBE01BE
S1134D206F5F7F4F86ED97E00E94B80A81E0809321
S1134D30D507DE01AF59BF4F84E08D9380E2E6EDE5
S1134D40F7E001900D928A95E1F781E690E08C0FEF
S1134D509D1F01960E94E30580E2E6EFF7E0A1E6DD
S1134D60B0E0AC0FBD1F919601900D928A95E1F7CA
S1134D7081E690E08C0F9D1F81960E94E305B501AA
S1134D80A401CE018E559F4F0E94E90BB801605ECD
S1134D907F4F05E410E09E012F593F4F40E250E061
S1134DA0CE018196A4D90E94B10ACE0181960E94B7
S1134DB0E305BE016F5D7F4FCB010E944406AE0147
S1134DC04F5F5F4FBE016F5D7F4FC7010E94920727
S1134DD080E001C081E0CB55DF4F0FB6F894DEBF11
S1134DE00FBECDBFDF91CF911F910F91FF90EF9038
S1134DF0BF90AF909F908F900895CF93DF93CDB7DE
S1134E00DEB7A0970FB6F894DEBF0FBECDBFCE01BC
S1134E10019620E2FC0111922A95E9F7EBDEA096B7
S1134E200FB6F894DEBF0FBECDBFDF91CF910895CA
S1134E30CF93DF93EC0180E2FE0111928A95E9F7AA
S1134E400E94643E888388E090E0DF91CF910895CA
S1134E502F923F924F925F927F928F929F92AF9246
S1134E60BF92CF92DF92EF92FF920F931F93CF9353
S1134E70DF93CDB7DEB7C95AD1090FB6F894DEBFB8
S1134E800FBECDBF2C011B01742ECE018F5B9F4F33
S1134E900E948130A12CB12C7E0181E2E80EF11C2C
S1134EA0CE010196C5DF99230CF49AC0A80EB91E51
S1134EB0FE0131966F0147018F01F80161918F0165
S1134EC0CE018F5B9F4F0E94D530E016F106A9F703
S1134ED0A114F2E0BF0620F3772049F080E2F1014B
S1134EE0DE01119601900D928A95E1F705C0CE017D
S1134EF001962CDE811175C0F60161916F01CE011E
S1134F008F5B9F4F0E94D5308C149D04A9F7CE016E
S1134F108F5B9F4F0E94D83041E0BE016F5B7F4F93
S1134F20CE0181960E94040DCE018F5B9F4F0E949B
S1134F308130CE0181967C016C0190E2C90ED11CB6
S1134F408701F80161918F01CE018F5B9F4F0E9411
S1134F50D5300C151D05A9F710E262E4CE018F5B74
S1134F609F4F0E94D5301150C1F7CE018F5B9F4FE8
S1134F700E94D83041E0BE016F5B7F4FCE010196A5
S1134F800E94040D772049F080E2FE013196D101A0
S1134F9001900D928A95E1F705C0CE01019689DD55
S1134FA081111FC0CE018F5B9F4F0E948130F7019A
S1134FB061917F01CE018F5B9F4F0E94D530EC142D
S1134FC0FD04A9F7CE018F5B9F4F0E94DB3041E0C7
S1134FD0BE016F5B7F4FC2010E94040D80E001C0DF
S1134FE081E0C755DF4F0FB6F894DEBF0FBECDBFCB
S1134FF0DF91CF911F910F91FF90EF90DF90CF90B1
S1135000BF90AF909F908F907F905F904F903F9014
S11350102F90089540E060E070E01ACF089541E0D9
S113502017CF08952F923F924F925F926F927F9283
S11350308F929F92AF92BF92CF92DF92EF92FF92A4
S11350400F931F93CF93DF93CDB7DEB7C554D10928
S11350500FB6F894DEBF0FBECDBF1C01DC01CD90AE
S1135060DD90ED90FC901397CCA6DDA6EEA6FFA6EE
S11350701496CD90DD90ED90FC901797C8AAD9AA0C
S1135080EAAAFBAA1896CD90DD90ED90FC901B97B0
S1135090CCAADDAAEEAAFFAA1C96CD90DD90ED90D5
S11350A0FC901F97C8AED9AEEAAEFBAE5096CD9039
S11350B0DD90ED90FC905397CCAEDDAEEEAEFFAE3E
S11350C00CE114E01B8B0A8B2CEB34E0398B288B1E
S11350D04CEC53E05F874E878CE694E0C88ED98E03
S11350E0EA8EFB8EC8ACD9ACEAACFBACCE82DF82D4
S11350F0E886F9864CA95DA96EA97FA9E8A8F9A854
S11351000AA91BA9E8A2F9A20AA31BA30CA51DA521
S11351102EA53FA508A719A72AA73BA7CCACDDACB1
S1135120EEACFFACCC8ADD8AEE8AFF8AE8ACF9AC3F
S11351300AAD1BADEA86FB860C871D876A017B01DD
S113514008A919A92AA93BA90C8F1D8F2E8F3F8F5F
S11351500CA51DA52EA53FA50CA31DA32EA33FA3FF
S11351601D8222969FAF8EAF229726C08E819F818B
S1135170A885B985888F998FAA8FBB8F0E831F83CB
S11351802887398748A259A26AA27BA20A851B856F
S11351902C853D850C8B1D8B2E8B3F8B8A869B86A5
S11351A0AC86BD8626968CAD9DADAEADBFAD2697C3
S11351B08C8F9D8FAE8FBF8F8D8182958F70813044
S11351C0C9F138F0823009F47AC0833009F4BCC0E4
S11351D000C10C8D1D8D2E8D3F8D0C251D252E257A
S11351E03F258A859B85AC85BD85082719272A27F5
S11351F03B274E805F806884798440945094609407
S11352007094442A552A662A772A88A199A1AAA1CA
S1135210BBA1482659266A267B2696EE9983ABE8DD
S1135220AA83B2EABB83E0E5EC83812C912CA12C08
S1135230B12C07C10A851B852C853D850C251D25B0
S11352402E253F258C8D9D8DAE8DBF8D0823192372
S11352502A233B238A859B85AC85BD85082719278E
S11352602A273B2748A059A06AA07BA0442655269C
S1135270662677268E819F81A885B9854822592282
S11352806A227B22442655266626772694E2998351
S1135290A1EDAA83BDE4BB83ECE5EC830F2EF9E911
S11352A08F2EF02D0F2EF9E79F2EF02D0F2EF2E802
S11352B0AF2EF02D0F2EFAE5BF2EF02DC2C09701B0
S11352C0860100951095209530958C8D9D8DAE8D21
S11352D0BF8D082B192B2A2B3B2B8A859B85AC85EC
S11352E0BD85082719272A273B272A013B0140941B
S11352F050946094709488A199A1AAA1BBA1482A52
S1135300592A6A2A7B2A8E819F81A885B9854826D5
S113531059266A267B2693EF9983AEE3AA83B0E7E6
S1135320BB83EDE6EC830F2EF1EA8F2EF02D0F2ECA
S1135330FBEE9F2EF02D0F2EF9EDAF2EF02D0F2E3C
S1135340FEE6BF2EF02D7DC00C8D1D8D2E8D3F8D64
S11353500C251D252E253F258A859B85AC85BD857D
S1135360082319232A233B230C251D252E253F25FD
S11353704E805F8068847984442655266626772685
S113538088A199A1AAA1BBA1482259226A227B2201
S11353908E819F81A885B985482659266A267B2651
S11353A099EE9983A6E7AA83BDE6BB83EAE7EC837B
S11353B00F2EFCED8F2EF02D0F2EFCEB9F2EF02DDB
S11353C00F2EFBE1AF2EF02D0F2EFFE8BF2EF02D98
S11353D038C00A851B852C853D8500951095209540
S11353E030950C291D292E293F298C8D9D8DAE8D3C
S11353F0BF8D082719272A273B274E805F806884A2
S1135400798488A199A1AAA1BBA1482659266A2614
S11354107B26442655266626772619821A821B8205
S11354201C820F2EFEE48F2EF02D0F2EFDEF9F2EEB
S1135430F02D0F2EF3E5AF2EF02D0F2EF9EABF2E2F
S1135440F02DEA89FB899491E889F9898491F10125
S1135450A4E08A9FE00DF11D1124080D191D2A1DD9
S11354603B1D83A094A0A5A0B6A0800E911EA21EF1
S1135470B31E0CA11DA12EA13FA1080D191D2A1DAB
S11354803B1D48015901092E04C0880C991CAA1C13
S1135490BB1C0A94D2F791959F7104C03695279549
S11354A0179507959A95D2F7082919292A293B298E
S11354B08C899D89AE89BF89800F911FA21FB31F5C
S11354C026968CAF9DAFAEAFBFAF269797018601EE
S11354D00F2EFAE0000F111F221F331FFA95D1F788
S11354E0F02D46015701072E76E1B694A7949794C0
S11354F087947A95D1F7702D802A912AA22AB32A0B
S1135500EE85FF8524912296EEADFFAD229734916E
S1135510F10104E0309FE00DF11D112489819A818D
S1135520AB81BC81480E591E6A1E7B1EC3A0D4A049
S1135530E5A0F6A0C40CD51CE61CF71C88A599A50B
S1135540AAA5BBA5C80ED91EEA1EFB1E260137015B
S1135550022E04C0440C551C661C771C0A94D2F716
S113556021952F7104C0F694E794D794C7942A9593
S1135570D2F74C285D286E287F28C88CD98CEA8CF9
S1135580FB8C4C0C5D1C6E1C7F1C6A017B010B2E7A
S1135590BAE0CC0CDD1CEE1CFF1CBA95D1F7B02D83
S11355A08A019B010F2EF6E13695279517950795ED
S11355B0FA95D1F7F02D0C291D292E293F294D816B
S11355C04F5F4D836A897B896F5F7F4F7B8B6A8BCB
S11355D0888999890196998B888BAE85BF851196A8
S11355E0BF87AE8722964EAD5FAD22974F5F5F4F68
S11355F022965FAF4EAF22976C897D898E899F89F1
S11356006CA37DA38EA39FA3CC8CDD8CEE8CFF8C2E
S1135610888D998DAA8DBB8D88A799A7AAA7BBA7AA
S113562048A159A16AA17BA19D81903509F09ECD25
S113563026968CAD9DADAEADBFAD2697CE80DF80F6
S1135640E884F9848C0C9D1CAE1CBF1C4CA95DA97C
S11356506EA97FA9840E951EA61EB71EF101848231
S11356609582A682B782CA84DB84EC84FD84488D4B
S1135670598D6A8D7B8DC40ED51EE61EF71E48AD6E
S113568059AD6AAD7BADC40ED51EE61EF71EC086AD
S1135690D186E286F3864C895D896E897F89440DC3
S11356A0551D661D771DCCACDDACEEACFFAC4C0DCE
S11356B05D1D6E1D7F1D4487558766877787C8A04B
S11356C0D9A0EAA0FBA08C0D9D1DAE1DBF1D4CA54D
S11356D05DA56EA57FA5840F951FA61FB71F808BA0
S11356E0918BA28BB38BCC8CDD8CEE8CFF8C0C0D50
S11356F01D1D2E1D3F1D48A959A96AA97BA9040F88
S1135700151F261F371F0083118322833383CB5B2E
S1135710DF4F0FB6F894DEBF0FBECDBFDF91CF9140
S11357201F910F91FF90EF90DF90CF90BF90AF90BB
S11357309F908F907F906F905F904F903F902F90AD
S11357400895FC01DC01AD59BF4F1D921D921D92BD
S11357501C921397149682E198E28D939C9312A263
S113576081E093E2A5E4B7E680839183A283B383C7
S113577089E89BEAADECBFEE84839583A683B78367
S11357808EEF9CEDAAEBB8E980879187A287B38757
S113579086E794E5A2E3B0E184879587A687B78777
S11357A080EF91EEA2EDB3EC808B918BA28BB38B47
S11357B0CF010C94FF0B08950C940D0C08950C94D8
S11357C0880C08952F923F924F925F926F927F922E
S11357D08F929F92AF92BF92CF92DF92EF92FF92FD
S11357E00F931F93CF93DF93CDB7DEB7C254D1404D
S11357F00FB6F894DEBF0FBECDBFCF5DDE4F9983E9
S11358008883C152D140DC0193969E012F5F3F4FA4
S1135810C15FDE4F39832883CF50D140CE018F5BE7
S11358209F4FF9014D915D916D917D9141935193FC
S113583061937193E817F907A9F71E0131EC230E60
S1135840311CC15FDE4FE881F981CF50D140CD5F7B
S1135850DE4FF983E883C350D140CD5FDE4F28810A
S11358603981C350D140D901D8964D915D916D9144
S11358707C91DB9714968D919D910D90BC91A02DF8
S1135880F9013496CD5FDE4FF983E883C350D140EC
S1135890F901C4A0D5A0E6A0F7A00081118122815E
S11358A03381C00ED11EE21EF31E2A013B01032EDA
S11358B03DE0440C551C661C771C3A95D1F7302DFD
S11358C08A019B010F2EF3E13695279517950795CD
S11358D0FA95D1F7F02D402A512A622A732A8A01B7
S11358E09B010F2EFFE0000F111F221F331FFA959B
S11358F0D1F7F02D4A015B01072E71E1B694A7940C
S1135900979487947A95D1F7702D082919292A2913
S11359103B290425152526253725032E3AE07695BF
S11359206795579547953A95D1F7302D40275127DC
S11359306227732797018601040F151F261F371F3F
S11359406C017D010B2EBEE0CC0CDD1CEE1CFF1C9B
S1135950BA95D1F7B02DAC01BD01032E32E1769595
S11359606795579547953A95D1F7302D46015701DC
S1135970842A952AA62AB72A6C017D01689416F810
S1135980F694E794D794C7941694D1F7AC01BD016B
S1135990032E39E1440F551F661F771F3A95D1F73F
S11359A0302D4C295D296E297F2975016401C42697
S11359B0D526E626F726AC01BD01689412F8769543
S11359C06795579547951694D1F7D701C601842753
S11359D09527A627B727800F911FA21FB31FCD5F5E
S11359E0DE4FE881F981C350D14084AF95AFA6AFB3
S11359F0B7AFE215F30509F030CFCF5DDE4FA881D4
S1135A00B981C152D1408D909D90AD90BC901397B7
S1135A10CD5DDE4F88829982AA82BB82C352D14077
S1135A2014968D909D90AD90BC901797C95DDE4FF4
S1135A3088829982AA82BB82C752D14018968D90DF
S1135A409D90AD90BC901B97C55DDE4F8882998276
S1135A50AA82BB82CB52D1401C968D909D90AD9072
S1135A60BC901F97C15DDE4F88829982AA82BB8257
S1135A70CF52D14050968D909D90AD90BC9053974D
S1135A80CD5CDE4F88829982AA82BB82C353D14007
S1135A9054968D909D90AD90BC905797C95CDE4F05
S1135AA088829982AA82BB82C753D14058968D902E
S1135AB09D90AD90BC905B97C55CDE4F88829982C7
S1135AC0AA82BB82CB53D1405C968D909D90AD90C1
S1135AD0BC905F97C15CDE4F88829982AA82BB82A8
S1135AE0CF53D1400F2EFCE02F2EF5E03F2EF02DAA
S1135AF09E012F5F3E4FCF5FDE4F39832883C15015
S1135B00D140CD5FDE4F88829982AA82BB82C35086
S1135B10D140C55CDE4F488159816A817B81CB537A
S1135B20D140CF5EDE4F488359836A837B83C15162
S1135B30D140C95CDE4F688179818A819B81C753DA
S1135B40D140CB5EDE4F688379838A839B83C551C2
S1135B50D140CD5CDE4F488059806A807B80C3533E
S1135B60D140C15DDE4F88819981AA81BB81CF522A
S1135B70D140C75EDE4F88839983AA83BB83C95112
S1135B80D140C55DDE4F88809980AA80BB80CB520E
S1135B90D140C95FDE4F88829982AA82BB82C750F6
S1135BA0D140C95DDE4FA880B980CA80DB80C7526E
S1135BB0D140C55FDE4FA882B982CA82DB82CB5056
S1135BC0D140CD5DDE4F88819981AA81BB81C352CA
S1135BD0D14034C0CB5EDE4F288139814A815B815C
S1135BE0C551D140CF5EDE4F288339834A835B831E
S1135BF0C151D140CB5EDE4F488259826A827B829A
S1135C00C551D14024013501C55FDE4F488159811A
S1135C106A817B81CB50D140C95FDE4F4883598371
S1135C206A837B83C750D140C55FDE4F88839983E5
S1135C30AA83BB83CB50D140D701C601F101859023
S1135C409590A590B490C35EDE4F88829982AA8213
S1135C50BB82CD51D140C15FDE4FE881F981CF5085
S1135C60D1400191119121913191C15FDE4FF983AE
S1135C70E883CF50D140730162010B2EB5E1CC0C07
S1135C80DD1CEE1CFF1CBA95D1F7B02DB301A201A7
S1135C90032E3BE076956795579547953A95D1F74E
S1135CA0302D4C295D296E297F29730162010B2E49
S1135CB0BAE1CC0CDD1CEE1CFF1CBA95D1F7B02D5B
S1135CC053014201689415F8B694A7949794879465
S1135CD01694D1F7C828D928EA28FB28C426D52643
S1135CE0E626F726B301A201440F551F661F771F4E
